{
  "_format": "hh-sol-artifact-1",
  "contractName": "college",
  "sourceName": "contracts/all.sol",
  "abi": [
    {
      "inputs": [
        {
          "internalType": "address",
          "name": "_dean",
          "type": "address"
        }
      ],
      "stateMutability": "nonpayable",
      "type": "constructor"
    },
    {
      "inputs": [],
      "name": "dean",
      "outputs": [
        {
          "internalType": "address",
          "name": "",
          "type": "address"
        }
      ],
      "stateMutability": "view",
      "type": "function"
    },
    {
      "inputs": [],
      "name": "gradCertifcationTokenAddress",
      "outputs": [
        {
          "internalType": "address",
          "name": "",
          "type": "address"
        }
      ],
      "stateMutability": "view",
      "type": "function"
    },
    {
      "inputs": [
        {
          "internalType": "address",
          "name": "_student",
          "type": "address"
        },
        {
          "internalType": "string",
          "name": "URI",
          "type": "string"
        }
      ],
      "name": "mintCert",
      "outputs": [],
      "stateMutability": "nonpayable",
      "type": "function"
    },
    {
      "inputs": [
        {
          "internalType": "address",
          "name": "",
          "type": "address"
        },
        {
          "internalType": "address",
          "name": "",
          "type": "address"
        },
        {
          "internalType": "uint256",
          "name": "",
          "type": "uint256"
        },
        {
          "internalType": "bytes",
          "name": "",
          "type": "bytes"
        }
      ],
      "name": "onERC721Received",
      "outputs": [
        {
          "internalType": "bytes4",
          "name": "",
          "type": "bytes4"
        }
      ],
      "stateMutability": "nonpayable",
      "type": "function"
    },
    {
      "inputs": [],
      "name": "populationContract",
      "outputs": [
        {
          "internalType": "address",
          "name": "",
          "type": "address"
        }
      ],
      "stateMutability": "view",
      "type": "function"
    },
    {
      "inputs": [
        {
          "internalType": "address",
          "name": "_GCT",
          "type": "address"
        }
      ],
      "name": "setGradCertifcationTokenAddress",
      "outputs": [],
      "stateMutability": "nonpayable",
      "type": "function"
    },
    {
      "inputs": [
        {
          "internalType": "address",
          "name": "_populationContract",
          "type": "address"
        }
      ],
      "name": "setPopulationContractAddress",
      "outputs": [],
      "stateMutability": "nonpayable",
      "type": "function"
    }
  ],
  "bytecode": "0x60806040523480156200001157600080fd5b5060405162005047380380620050478339818101604052810190620000379190620001a4565b806000806101000a81548173ffffffffffffffffffffffffffffffffffffffff021916908373ffffffffffffffffffffffffffffffffffffffff16021790555060003082604051620000899062000171565b62000096929190620001e1565b604051809103906000f080158015620000b3573d6000803e3d6000fd5b50905080600160006101000a81548173ffffffffffffffffffffffffffffffffffffffff021916908373ffffffffffffffffffffffffffffffffffffffff160217905550600060405162000107906200017f565b604051809103906000f08015801562000124573d6000803e3d6000fd5b50905080600260006101000a81548173ffffffffffffffffffffffffffffffffffffffff021916908373ffffffffffffffffffffffffffffffffffffffff1602179055505050506200025c565b6110278062000cd683390190565b61334a8062001cfd83390190565b6000815190506200019e8162000242565b92915050565b600060208284031215620001b757600080fd5b6000620001c7848285016200018d565b91505092915050565b620001db816200020e565b82525050565b6000604082019050620001f86000830185620001d0565b620002076020830184620001d0565b9392505050565b60006200021b8262000222565b9050919050565b600073ffffffffffffffffffffffffffffffffffffffff82169050919050565b6200024d816200020e565b81146200025957600080fd5b50565b610a6a806200026c6000396000f3fe608060405234801561001057600080fd5b506004361061007d5760003560e01c8063bed234021161005b578063bed23402146100ea578063e982247f14610108578063ed0c015614610126578063f2a46acc146101445761007d565b8063150b7a021461008257806335d06246146100b2578063531bd167146100ce575b600080fd5b61009c600480360381019061009791906105de565b610160565b6040516100a9919061079b565b60405180910390f35b6100cc60048036038101906100c791906105b5565b610174565b005b6100e860048036038101906100e391906105b5565b610210565b005b6100f26102ac565b6040516100ff9190610750565b60405180910390f35b6101106102d2565b60405161011d9190610750565b60405180910390f35b61012e6102f6565b60405161013b9190610750565b60405180910390f35b61015e60048036038101906101599190610659565b61031c565b005b600063150b7a0260e01b9050949350505050565b60008054906101000a900473ffffffffffffffffffffffffffffffffffffffff1673ffffffffffffffffffffffffffffffffffffffff163373ffffffffffffffffffffffffffffffffffffffff16146101cc57600080fd5b80600260006101000a81548173ffffffffffffffffffffffffffffffffffffffff021916908373ffffffffffffffffffffffffffffffffffffffff16021790555050565b60008054906101000a900473ffffffffffffffffffffffffffffffffffffffff1673ffffffffffffffffffffffffffffffffffffffff163373ffffffffffffffffffffffffffffffffffffffff161461026857600080fd5b80600160006101000a81548173ffffffffffffffffffffffffffffffffffffffff021916908373ffffffffffffffffffffffffffffffffffffffff16021790555050565b600160009054906101000a900473ffffffffffffffffffffffffffffffffffffffff1681565b60008054906101000a900473ffffffffffffffffffffffffffffffffffffffff1681565b600260009054906101000a900473ffffffffffffffffffffffffffffffffffffffff1681565b60011515600160009054906101000a900473ffffffffffffffffffffffffffffffffffffffff1673ffffffffffffffffffffffffffffffffffffffff1663c2ba4744336040518263ffffffff1660e01b815260040161037b9190610750565b60206040518083038186803b15801561039357600080fd5b505afa1580156103a7573d6000803e3d6000fd5b505050506040513d601f19601f820116820180604052508101906103cb91906106ad565b15151461040d576040517f08c379a0000000000000000000000000000000000000000000000000000000008152600401610404906107b6565b60405180910390fd5b6000600260009054906101000a900473ffffffffffffffffffffffffffffffffffffffff1690508073ffffffffffffffffffffffffffffffffffffffff1663d204c45e84846040518363ffffffff1660e01b815260040161046f92919061076b565b600060405180830381600087803b15801561048957600080fd5b505af115801561049d573d6000803e3d6000fd5b50505050505050565b60006104b96104b4846107fb565b6107d6565b9050828152602081018484840111156104d157600080fd5b6104dc8482856108ed565b509392505050565b60006104f76104f28461082c565b6107d6565b90508281526020810184848401111561050f57600080fd5b61051a8482856108ed565b509392505050565b600081359050610531816109ef565b92915050565b60008151905061054681610a06565b92915050565b600082601f83011261055d57600080fd5b813561056d8482602086016104a6565b91505092915050565b600082601f83011261058757600080fd5b81356105978482602086016104e4565b91505092915050565b6000813590506105af81610a1d565b92915050565b6000602082840312156105c757600080fd5b60006105d584828501610522565b91505092915050565b600080600080608085870312156105f457600080fd5b600061060287828801610522565b945050602061061387828801610522565b9350506040610624878288016105a0565b925050606085013567ffffffffffffffff81111561064157600080fd5b61064d8782880161054c565b91505092959194509250565b6000806040838503121561066c57600080fd5b600061067a85828601610522565b925050602083013567ffffffffffffffff81111561069757600080fd5b6106a385828601610576565b9150509250929050565b6000602082840312156106bf57600080fd5b60006106cd84828501610537565b91505092915050565b6106df81610879565b82525050565b6106ee81610897565b82525050565b60006106ff8261085d565b6107098185610868565b93506107198185602086016108fc565b6107228161098f565b840191505092915050565b600061073a603b83610868565b9150610745826109a0565b604082019050919050565b600060208201905061076560008301846106d6565b92915050565b600060408201905061078060008301856106d6565b818103602083015261079281846106f4565b90509392505050565b60006020820190506107b060008301846106e5565b92915050565b600060208201905081810360008301526107cf8161072d565b9050919050565b60006107e06107f1565b90506107ec828261092f565b919050565b6000604051905090565b600067ffffffffffffffff82111561081657610815610960565b5b61081f8261098f565b9050602081019050919050565b600067ffffffffffffffff82111561084757610846610960565b5b6108508261098f565b9050602081019050919050565b600081519050919050565b600082825260208201905092915050565b6000610884826108c3565b9050919050565b60008115159050919050565b60007fffffffff0000000000000000000000000000000000000000000000000000000082169050919050565b600073ffffffffffffffffffffffffffffffffffffffff82169050919050565b6000819050919050565b82818337600083830152505050565b60005b8381101561091a5780820151818401526020810190506108ff565b83811115610929576000848401525b50505050565b6109388261098f565b810181811067ffffffffffffffff8211171561095757610956610960565b5b80604052505050565b7f4e487b7100000000000000000000000000000000000000000000000000000000600052604160045260246000fd5b6000601f19601f8301169050919050565b7f6465636c696e65642c20746869732061646472657373206973206e6f7420616c60008201527f6c6f77656420746f206d696e74206365727469666963617465732e0000000000602082015250565b6109f881610879565b8114610a0357600080fd5b50565b610a0f8161088b565b8114610a1a57600080fd5b50565b610a26816108e3565b8114610a3157600080fd5b5056fea2646970667358221220e1078b1b3e6a205eb1ca1cfaffc335b39b58e60adb2a2c280a82b245d11944ee64736f6c6343000804003360806040523480156200001157600080fd5b50604051620010273803806200102783398181016040528101906200003791906200025b565b6200004e60006200022060201b620008521760201c565b60006200006760006200023660201b620008681760201c565b905082600160006101000a81548173ffffffffffffffffffffffffffffffffffffffff021916908373ffffffffffffffffffffffffffffffffffffffff16021790555081600260006101000a81548173ffffffffffffffffffffffffffffffffffffffff021916908373ffffffffffffffffffffffffffffffffffffffff16021790555060006040518060600160405280608f60f81b7effffffffffffffffffffffffffffffffffffffffffffffffffffffffffffff191681526020018473ffffffffffffffffffffffffffffffffffffffff1681526020016000801b815250905081600460008573ffffffffffffffffffffffffffffffffffffffff1673ffffffffffffffffffffffffffffffffffffffff16815260200190815260200160002081905550806005600084815260200190815260200160002060008201518160000160006101000a81548160ff021916908360f81c021790555060208201518160000160016101000a81548173ffffffffffffffffffffffffffffffffffffffff021916908373ffffffffffffffffffffffffffffffffffffffff1602179055506040820151816001015590505050505050620002ea565b6001816000016000828254019250508190555050565b600081600001549050919050565b6000815190506200025581620002d0565b92915050565b600080604083850312156200026f57600080fd5b60006200027f8582860162000244565b9250506020620002928582860162000244565b9150509250929050565b6000620002a982620002b0565b9050919050565b600073ffffffffffffffffffffffffffffffffffffffff82169050919050565b620002db816200029c565b8114620002e757600080fd5b50565b610d2d80620002fa6000396000f3fe608060405234801561001057600080fd5b50600436106100935760003560e01c8063548429da11610066578063548429da1461010e57806396741df714610140578063c2ba474414610170578063e66120ae146101a0578063e982247f146101bc57610093565b80630c9e427b1461009857806329a7c67c146100b657806338d86406146100d45780634fa27955146100f2575b600080fd5b6100a06101da565b6040516100ad9190610a5e565b60405180910390f35b6100be610244565b6040516100cb9190610ab0565b60405180910390f35b6100dc6102d2565b6040516100e99190610a28565b60405180910390f35b61010c600480360381019061010791906108f3565b6102f8565b005b61012860048036038101906101239190610958565b610518565b60405161013793929190610a79565b60405180910390f35b61015a600480360381019061015591906108ca565b61056f565b6040516101679190610af2565b60405180910390f35b61018a600480360381019061018591906108ca565b610587565b6040516101979190610a43565b60405180910390f35b6101ba60048036038101906101b5919061092f565b610681565b005b6101c461082c565b6040516101d19190610a28565b60405180910390f35b600060056000600460003373ffffffffffffffffffffffffffffffffffffffff1673ffffffffffffffffffffffffffffffffffffffff16815260200190815260200160002054815260200190815260200160002060000160009054906101000a900460f81b905090565b6003805461025190610bda565b80601f016020809104026020016040519081016040528092919081815260200182805461027d90610bda565b80156102ca5780601f1061029f576101008083540402835291602001916102ca565b820191906000526020600020905b8154815290600101906020018083116102ad57829003601f168201915b505050505081565b600160009054906101000a900473ffffffffffffffffffffffffffffffffffffffff1681565b806000600460008373ffffffffffffffffffffffffffffffffffffffff1673ffffffffffffffffffffffffffffffffffffffff168152602001908152602001600020549050600060056000838152602001908152602001600020905060008160000160009054906101000a900460f81b60f81c9050600260009054906101000a900473ffffffffffffffffffffffffffffffffffffffff1673ffffffffffffffffffffffffffffffffffffffff163373ffffffffffffffffffffffffffffffffffffffff16148061045d575060018160ff1611801561045c57508373ffffffffffffffffffffffffffffffffffffffff163373ffffffffffffffffffffffffffffffffffffffff16148061045b57508160000160019054906101000a900473ffffffffffffffffffffffffffffffffffffffff1673ffffffffffffffffffffffffffffffffffffffff163373ffffffffffffffffffffffffffffffffffffffff16145b5b5b61049c576040517f08c379a000000000000000000000000000000000000000000000000000000000815260040161049390610ad2565b60405180910390fd5b6000600460008773ffffffffffffffffffffffffffffffffffffffff1673ffffffffffffffffffffffffffffffffffffffff168152602001908152602001600020549050866005600083815260200190815260200160002060000160006101000a81548160ff021916908360f81c021790555050505050505050565b60056020528060005260406000206000915090508060000160009054906101000a900460f81b908060000160019054906101000a900473ffffffffffffffffffffffffffffffffffffffff16908060010154905083565b60046020528060005260406000206000915090505481565b6000600260009054906101000a900473ffffffffffffffffffffffffffffffffffffffff1673ffffffffffffffffffffffffffffffffffffffff163373ffffffffffffffffffffffffffffffffffffffff1614156105e8576001905061067c565b6000600460008473ffffffffffffffffffffffffffffffffffffffff1673ffffffffffffffffffffffffffffffffffffffff168152602001908152602001600020549050600060056000838152602001908152602001600020905060008160000160009054906101000a900460f81b60f81c905060808160ff161115610674576001935050505061067c565b600093505050505b919050565b336000600460008373ffffffffffffffffffffffffffffffffffffffff1673ffffffffffffffffffffffffffffffffffffffff168152602001908152602001600020549050600060056000838152602001908152602001600020905060008160000160009054906101000a900460f81b60f81c9050600260009054906101000a900473ffffffffffffffffffffffffffffffffffffffff1673ffffffffffffffffffffffffffffffffffffffff163373ffffffffffffffffffffffffffffffffffffffff1614806107e6575060018160ff161180156107e557508373ffffffffffffffffffffffffffffffffffffffff163373ffffffffffffffffffffffffffffffffffffffff1614806107e457508160000160019054906101000a900473ffffffffffffffffffffffffffffffffffffffff1673ffffffffffffffffffffffffffffffffffffffff163373ffffffffffffffffffffffffffffffffffffffff16145b5b5b610825576040517f08c379a000000000000000000000000000000000000000000000000000000000815260040161081c90610ad2565b60405180910390fd5b5050505050565b600260009054906101000a900473ffffffffffffffffffffffffffffffffffffffff1681565b6001816000016000828254019250508190555050565b600081600001549050919050565b60008135905061088581610c9b565b92915050565b60008135905061089a81610cb2565b92915050565b6000813590506108af81610cc9565b92915050565b6000813590506108c481610ce0565b92915050565b6000602082840312156108dc57600080fd5b60006108ea84828501610876565b91505092915050565b6000806040838503121561090657600080fd5b60006109148582860161088b565b925050602061092585828601610876565b9150509250929050565b60006020828403121561094157600080fd5b600061094f848285016108a0565b91505092915050565b60006020828403121561096a57600080fd5b6000610978848285016108b5565b91505092915050565b61098a81610b29565b82525050565b61099981610b3b565b82525050565b6109a881610b47565b82525050565b6109b781610b73565b82525050565b60006109c882610b0d565b6109d28185610b18565b93506109e2818560208601610ba7565b6109eb81610c3b565b840191505092915050565b6000610a03602983610b18565b9150610a0e82610c4c565b604082019050919050565b610a2281610b9d565b82525050565b6000602082019050610a3d6000830184610981565b92915050565b6000602082019050610a586000830184610990565b92915050565b6000602082019050610a73600083018461099f565b92915050565b6000606082019050610a8e600083018661099f565b610a9b6020830185610981565b610aa860408301846109ae565b949350505050565b60006020820190508181036000830152610aca81846109bd565b905092915050565b60006020820190508181036000830152610aeb816109f6565b9050919050565b6000602082019050610b076000830184610a19565b92915050565b600081519050919050565b600082825260208201905092915050565b6000610b3482610b7d565b9050919050565b60008115159050919050565b60007fff0000000000000000000000000000000000000000000000000000000000000082169050919050565b6000819050919050565b600073ffffffffffffffffffffffffffffffffffffffff82169050919050565b6000819050919050565b60005b83811015610bc5578082015181840152602081019050610baa565b83811115610bd4576000848401525b50505050565b60006002820490506001821680610bf257607f821691505b60208210811415610c0657610c05610c0c565b5b50919050565b7f4e487b7100000000000000000000000000000000000000000000000000000000600052602260045260246000fd5b6000601f19601f8301169050919050565b7f6e6f7420617574686f726973656420746f206368616e6765207573657227732060008201527f70726976696c6765730000000000000000000000000000000000000000000000602082015250565b610ca481610b29565b8114610caf57600080fd5b50565b610cbb81610b47565b8114610cc657600080fd5b50565b610cd281610b73565b8114610cdd57600080fd5b50565b610ce981610b9d565b8114610cf457600080fd5b5056fea26469706673582212205d15f94f9def758b22cad5f50565fe08a9e5f05ceaa8f97565f23fb98a273c7f64736f6c6343000804003360806040523480156200001157600080fd5b506040518060400160405280601181526020017f4772616443657274656669636174696f6e0000000000000000000000000000008152506040518060400160405280600381526020017f4752430000000000000000000000000000000000000000000000000000000000815250816000908051906020019062000096929190620001a6565b508060019080519060200190620000af929190620001a6565b505050620000d2620000c6620000d860201b60201c565b620000e060201b60201c565b620002bb565b600033905090565b6000600760009054906101000a900473ffffffffffffffffffffffffffffffffffffffff16905081600760006101000a81548173ffffffffffffffffffffffffffffffffffffffff021916908373ffffffffffffffffffffffffffffffffffffffff1602179055508173ffffffffffffffffffffffffffffffffffffffff168173ffffffffffffffffffffffffffffffffffffffff167f8be0079c531659141344cd1fd0a4f28419497f9722a3daafe3b4186f6b6457e060405160405180910390a35050565b828054620001b49062000256565b90600052602060002090601f016020900481019282620001d8576000855562000224565b82601f10620001f357805160ff191683800117855562000224565b8280016001018555821562000224579182015b828111156200022357825182559160200191906001019062000206565b5b50905062000233919062000237565b5090565b5b808211156200025257600081600090555060010162000238565b5090565b600060028204905060018216806200026f57607f821691505b602082108114156200028657620002856200028c565b5b50919050565b7f4e487b7100000000000000000000000000000000000000000000000000000000600052602260045260246000fd5b61307f80620002cb6000396000f3fe608060405234801561001057600080fd5b506004361061010b5760003560e01c8063715018a6116100a2578063b88d4fde11610071578063b88d4fde146102a4578063c87b56dd146102c0578063d204c45e146102f0578063e985e9c51461030c578063f2fde38b1461033c5761010b565b8063715018a6146102425780638da5cb5b1461024c57806395d89b411461026a578063a22cb465146102885761010b565b806323b872dd116100de57806323b872dd146101aa57806342842e0e146101c65780636352211e146101e257806370a08231146102125761010b565b806301ffc9a71461011057806306fdde0314610140578063081812fc1461015e578063095ea7b31461018e575b600080fd5b61012a6004803603810190610125919061202e565b610358565b604051610137919061247a565b60405180910390f35b61014861043a565b6040516101559190612495565b60405180910390f35b61017860048036038101906101739190612080565b6104cc565b6040516101859190612413565b60405180910390f35b6101a860048036038101906101a39190611ff2565b610551565b005b6101c460048036038101906101bf9190611e98565b610669565b005b6101e060048036038101906101db9190611e98565b6106c9565b005b6101fc60048036038101906101f79190612080565b6106e9565b6040516102099190612413565b60405180910390f35b61022c60048036038101906102279190611e33565b61079b565b60405161023991906126f7565b60405180910390f35b61024a610853565b005b6102546108db565b6040516102619190612413565b60405180910390f35b610272610905565b60405161027f9190612495565b60405180910390f35b6102a2600480360381019061029d9190611f62565b610997565b005b6102be60048036038101906102b99190611ee7565b6109ad565b005b6102da60048036038101906102d59190612080565b610a0f565b6040516102e79190612495565b60405180910390f35b61030a60048036038101906103059190611f9e565b610a21565b005b61032660048036038101906103219190611e5c565b610ace565b604051610333919061247a565b60405180910390f35b61035660048036038101906103519190611e33565b610b62565b005b60007f80ac58cd000000000000000000000000000000000000000000000000000000007bffffffffffffffffffffffffffffffffffffffffffffffffffffffff1916827bffffffffffffffffffffffffffffffffffffffffffffffffffffffff1916148061042357507f5b5e139f000000000000000000000000000000000000000000000000000000007bffffffffffffffffffffffffffffffffffffffffffffffffffffffff1916827bffffffffffffffffffffffffffffffffffffffffffffffffffffffff1916145b80610433575061043282610c5a565b5b9050919050565b6060600080546104499061294d565b80601f01602080910402602001604051908101604052809291908181526020018280546104759061294d565b80156104c25780601f10610497576101008083540402835291602001916104c2565b820191906000526020600020905b8154815290600101906020018083116104a557829003601f168201915b5050505050905090565b60006104d782610cc4565b610516576040517f08c379a000000000000000000000000000000000000000000000000000000000815260040161050d90612657565b60405180910390fd5b6004600083815260200190815260200160002060009054906101000a900473ffffffffffffffffffffffffffffffffffffffff169050919050565b600061055c826106e9565b90508073ffffffffffffffffffffffffffffffffffffffff168373ffffffffffffffffffffffffffffffffffffffff1614156105cd576040517f08c379a00000000000000000000000000000000000000000000000000000000081526004016105c4906126b7565b60405180910390fd5b8073ffffffffffffffffffffffffffffffffffffffff166105ec610d30565b73ffffffffffffffffffffffffffffffffffffffff16148061061b575061061a81610615610d30565b610ace565b5b61065a576040517f08c379a000000000000000000000000000000000000000000000000000000000815260040161065190612597565b60405180910390fd5b6106648383610d38565b505050565b61067a610674610d30565b82610df1565b6106b9576040517f08c379a00000000000000000000000000000000000000000000000000000000081526004016106b0906126d7565b60405180910390fd5b6106c4838383610ecf565b505050565b6106e4838383604051806020016040528060008152506109ad565b505050565b6000806002600084815260200190815260200160002060009054906101000a900473ffffffffffffffffffffffffffffffffffffffff169050600073ffffffffffffffffffffffffffffffffffffffff168173ffffffffffffffffffffffffffffffffffffffff161415610792576040517f08c379a0000000000000000000000000000000000000000000000000000000008152600401610789906125d7565b60405180910390fd5b80915050919050565b60008073ffffffffffffffffffffffffffffffffffffffff168273ffffffffffffffffffffffffffffffffffffffff16141561080c576040517f08c379a0000000000000000000000000000000000000000000000000000000008152600401610803906125b7565b60405180910390fd5b600360008373ffffffffffffffffffffffffffffffffffffffff1673ffffffffffffffffffffffffffffffffffffffff168152602001908152602001600020549050919050565b61085b610d30565b73ffffffffffffffffffffffffffffffffffffffff166108796108db565b73ffffffffffffffffffffffffffffffffffffffff16146108cf576040517f08c379a00000000000000000000000000000000000000000000000000000000081526004016108c690612677565b60405180910390fd5b6108d96000611136565b565b6000600760009054906101000a900473ffffffffffffffffffffffffffffffffffffffff16905090565b6060600180546109149061294d565b80601f01602080910402602001604051908101604052809291908181526020018280546109409061294d565b801561098d5780601f106109625761010080835404028352916020019161098d565b820191906000526020600020905b81548152906001019060200180831161097057829003601f168201915b5050505050905090565b6109a96109a2610d30565b83836111fc565b5050565b6109be6109b8610d30565b83610df1565b6109fd576040517f08c379a00000000000000000000000000000000000000000000000000000000081526004016109f4906126d7565b60405180910390fd5b610a0984848484611369565b50505050565b6060610a1a826113c5565b9050919050565b610a29610d30565b73ffffffffffffffffffffffffffffffffffffffff16610a476108db565b73ffffffffffffffffffffffffffffffffffffffff1614610a9d576040517f08c379a0000000000000000000000000000000000000000000000000000000008152600401610a9490612677565b60405180910390fd5b6000610aa96008611517565b9050610ab56008611525565b610abf838261153b565b610ac98183611559565b505050565b6000600560008473ffffffffffffffffffffffffffffffffffffffff1673ffffffffffffffffffffffffffffffffffffffff16815260200190815260200160002060008373ffffffffffffffffffffffffffffffffffffffff1673ffffffffffffffffffffffffffffffffffffffff16815260200190815260200160002060009054906101000a900460ff16905092915050565b610b6a610d30565b73ffffffffffffffffffffffffffffffffffffffff16610b886108db565b73ffffffffffffffffffffffffffffffffffffffff1614610bde576040517f08c379a0000000000000000000000000000000000000000000000000000000008152600401610bd590612677565b60405180910390fd5b600073ffffffffffffffffffffffffffffffffffffffff168173ffffffffffffffffffffffffffffffffffffffff161415610c4e576040517f08c379a0000000000000000000000000000000000000000000000000000000008152600401610c45906124d7565b60405180910390fd5b610c5781611136565b50565b60007f01ffc9a7000000000000000000000000000000000000000000000000000000007bffffffffffffffffffffffffffffffffffffffffffffffffffffffff1916827bffffffffffffffffffffffffffffffffffffffffffffffffffffffff1916149050919050565b60008073ffffffffffffffffffffffffffffffffffffffff166002600084815260200190815260200160002060009054906101000a900473ffffffffffffffffffffffffffffffffffffffff1673ffffffffffffffffffffffffffffffffffffffff1614159050919050565b600033905090565b816004600083815260200190815260200160002060006101000a81548173ffffffffffffffffffffffffffffffffffffffff021916908373ffffffffffffffffffffffffffffffffffffffff160217905550808273ffffffffffffffffffffffffffffffffffffffff16610dab836106e9565b73ffffffffffffffffffffffffffffffffffffffff167f8c5be1e5ebec7d5bd14f71427d1e84f3dd0314c0f7b2291e5b200ac8c7c3b92560405160405180910390a45050565b6000610dfc82610cc4565b610e3b576040517f08c379a0000000000000000000000000000000000000000000000000000000008152600401610e3290612577565b60405180910390fd5b6000610e46836106e9565b90508073ffffffffffffffffffffffffffffffffffffffff168473ffffffffffffffffffffffffffffffffffffffff161480610e885750610e878185610ace565b5b80610ec657508373ffffffffffffffffffffffffffffffffffffffff16610eae846104cc565b73ffffffffffffffffffffffffffffffffffffffff16145b91505092915050565b8273ffffffffffffffffffffffffffffffffffffffff16610eef826106e9565b73ffffffffffffffffffffffffffffffffffffffff1614610f45576040517f08c379a0000000000000000000000000000000000000000000000000000000008152600401610f3c906124f7565b60405180910390fd5b600073ffffffffffffffffffffffffffffffffffffffff168273ffffffffffffffffffffffffffffffffffffffff161415610fb5576040517f08c379a0000000000000000000000000000000000000000000000000000000008152600401610fac90612537565b60405180910390fd5b610fc08383836115cd565b610fcb600082610d38565b6001600360008573ffffffffffffffffffffffffffffffffffffffff1673ffffffffffffffffffffffffffffffffffffffff168152602001908152602001600020600082825461101b9190612863565b925050819055506001600360008473ffffffffffffffffffffffffffffffffffffffff1673ffffffffffffffffffffffffffffffffffffffff168152602001908152602001600020600082825461107291906127dc565b92505081905550816002600083815260200190815260200160002060006101000a81548173ffffffffffffffffffffffffffffffffffffffff021916908373ffffffffffffffffffffffffffffffffffffffff160217905550808273ffffffffffffffffffffffffffffffffffffffff168473ffffffffffffffffffffffffffffffffffffffff167fddf252ad1be2c89b69c2b068fc378daa952ba7f163c4a11628f55a4df523b3ef60405160405180910390a46111318383836115d2565b505050565b6000600760009054906101000a900473ffffffffffffffffffffffffffffffffffffffff16905081600760006101000a81548173ffffffffffffffffffffffffffffffffffffffff021916908373ffffffffffffffffffffffffffffffffffffffff1602179055508173ffffffffffffffffffffffffffffffffffffffff168173ffffffffffffffffffffffffffffffffffffffff167f8be0079c531659141344cd1fd0a4f28419497f9722a3daafe3b4186f6b6457e060405160405180910390a35050565b8173ffffffffffffffffffffffffffffffffffffffff168373ffffffffffffffffffffffffffffffffffffffff16141561126b576040517f08c379a000000000000000000000000000000000000000000000000000000000815260040161126290612557565b60405180910390fd5b80600560008573ffffffffffffffffffffffffffffffffffffffff1673ffffffffffffffffffffffffffffffffffffffff16815260200190815260200160002060008473ffffffffffffffffffffffffffffffffffffffff1673ffffffffffffffffffffffffffffffffffffffff16815260200190815260200160002060006101000a81548160ff0219169083151502179055508173ffffffffffffffffffffffffffffffffffffffff168373ffffffffffffffffffffffffffffffffffffffff167f17307eab39ab6107e8899845ad3d59bd9653f200f220920489ca2b5937696c318360405161135c919061247a565b60405180910390a3505050565b611374848484610ecf565b611380848484846115d7565b6113bf576040517f08c379a00000000000000000000000000000000000000000000000000000000081526004016113b6906124b7565b60405180910390fd5b50505050565b60606113d082610cc4565b61140f576040517f08c379a000000000000000000000000000000000000000000000000000000000815260040161140690612637565b60405180910390fd5b600060066000848152602001908152602001600020805461142f9061294d565b80601f016020809104026020016040519081016040528092919081815260200182805461145b9061294d565b80156114a85780601f1061147d576101008083540402835291602001916114a8565b820191906000526020600020905b81548152906001019060200180831161148b57829003601f168201915b5050505050905060006114b961176e565b90506000815114156114cf578192505050611512565b6000825111156115045780826040516020016114ec9291906123ef565b60405160208183030381529060405292505050611512565b61150d846117ab565b925050505b919050565b600081600001549050919050565b6001816000016000828254019250508190555050565b611555828260405180602001604052806000815250611852565b5050565b61156282610cc4565b6115a1576040517f08c379a0000000000000000000000000000000000000000000000000000000008152600401611598906125f7565b60405180910390fd5b806006600084815260200190815260200160002090805190602001906115c8929190611c57565b505050565b505050565b505050565b60006115f88473ffffffffffffffffffffffffffffffffffffffff166118ad565b15611761578373ffffffffffffffffffffffffffffffffffffffff1663150b7a02611621610d30565b8786866040518563ffffffff1660e01b8152600401611643949392919061242e565b602060405180830381600087803b15801561165d57600080fd5b505af192505050801561168e57506040513d601f19601f8201168201806040525081019061168b9190612057565b60015b611711573d80600081146116be576040519150601f19603f3d011682016040523d82523d6000602084013e6116c3565b606091505b50600081511415611709576040517f08c379a0000000000000000000000000000000000000000000000000000000008152600401611700906124b7565b60405180910390fd5b805181602001fd5b63150b7a0260e01b7bffffffffffffffffffffffffffffffffffffffffffffffffffffffff1916817bffffffffffffffffffffffffffffffffffffffffffffffffffffffff191614915050611766565b600190505b949350505050565b60606040518060400160405280600781526020017f697066733a2f2f00000000000000000000000000000000000000000000000000815250905090565b60606117b682610cc4565b6117f5576040517f08c379a00000000000000000000000000000000000000000000000000000000081526004016117ec90612697565b60405180910390fd5b60006117ff61176e565b9050600081511161181f576040518060200160405280600081525061184a565b80611829846118d0565b60405160200161183a9291906123ef565b6040516020818303038152906040525b915050919050565b61185c8383611a7d565b61186960008484846115d7565b6118a8576040517f08c379a000000000000000000000000000000000000000000000000000000000815260040161189f906124b7565b60405180910390fd5b505050565b6000808273ffffffffffffffffffffffffffffffffffffffff163b119050919050565b60606000821415611918576040518060400160405280600181526020017f30000000000000000000000000000000000000000000000000000000000000008152509050611a78565b600082905060005b6000821461194a578080611933906129b0565b915050600a826119439190612832565b9150611920565b60008167ffffffffffffffff81111561198c577f4e487b7100000000000000000000000000000000000000000000000000000000600052604160045260246000fd5b6040519080825280601f01601f1916602001820160405280156119be5781602001600182028036833780820191505090505b5090505b60008514611a71576001826119d79190612863565b9150600a856119e691906129f9565b60306119f291906127dc565b60f81b818381518110611a2e577f4e487b7100000000000000000000000000000000000000000000000000000000600052603260045260246000fd5b60200101907effffffffffffffffffffffffffffffffffffffffffffffffffffffffffffff1916908160001a905350600a85611a6a9190612832565b94506119c2565b8093505050505b919050565b600073ffffffffffffffffffffffffffffffffffffffff168273ffffffffffffffffffffffffffffffffffffffff161415611aed576040517f08c379a0000000000000000000000000000000000000000000000000000000008152600401611ae490612617565b60405180910390fd5b611af681610cc4565b15611b36576040517f08c379a0000000000000000000000000000000000000000000000000000000008152600401611b2d90612517565b60405180910390fd5b611b42600083836115cd565b6001600360008473ffffffffffffffffffffffffffffffffffffffff1673ffffffffffffffffffffffffffffffffffffffff1681526020019081526020016000206000828254611b9291906127dc565b92505081905550816002600083815260200190815260200160002060006101000a81548173ffffffffffffffffffffffffffffffffffffffff021916908373ffffffffffffffffffffffffffffffffffffffff160217905550808273ffffffffffffffffffffffffffffffffffffffff16600073ffffffffffffffffffffffffffffffffffffffff167fddf252ad1be2c89b69c2b068fc378daa952ba7f163c4a11628f55a4df523b3ef60405160405180910390a4611c53600083836115d2565b5050565b828054611c639061294d565b90600052602060002090601f016020900481019282611c855760008555611ccc565b82601f10611c9e57805160ff1916838001178555611ccc565b82800160010185558215611ccc579182015b82811115611ccb578251825591602001919060010190611cb0565b5b509050611cd99190611cdd565b5090565b5b80821115611cf6576000816000905550600101611cde565b5090565b6000611d0d611d0884612737565b612712565b905082815260208101848484011115611d2557600080fd5b611d3084828561290b565b509392505050565b6000611d4b611d4684612768565b612712565b905082815260208101848484011115611d6357600080fd5b611d6e84828561290b565b509392505050565b600081359050611d8581612fed565b92915050565b600081359050611d9a81613004565b92915050565b600081359050611daf8161301b565b92915050565b600081519050611dc48161301b565b92915050565b600082601f830112611ddb57600080fd5b8135611deb848260208601611cfa565b91505092915050565b600082601f830112611e0557600080fd5b8135611e15848260208601611d38565b91505092915050565b600081359050611e2d81613032565b92915050565b600060208284031215611e4557600080fd5b6000611e5384828501611d76565b91505092915050565b60008060408385031215611e6f57600080fd5b6000611e7d85828601611d76565b9250506020611e8e85828601611d76565b9150509250929050565b600080600060608486031215611ead57600080fd5b6000611ebb86828701611d76565b9350506020611ecc86828701611d76565b9250506040611edd86828701611e1e565b9150509250925092565b60008060008060808587031215611efd57600080fd5b6000611f0b87828801611d76565b9450506020611f1c87828801611d76565b9350506040611f2d87828801611e1e565b925050606085013567ffffffffffffffff811115611f4a57600080fd5b611f5687828801611dca565b91505092959194509250565b60008060408385031215611f7557600080fd5b6000611f8385828601611d76565b9250506020611f9485828601611d8b565b9150509250929050565b60008060408385031215611fb157600080fd5b6000611fbf85828601611d76565b925050602083013567ffffffffffffffff811115611fdc57600080fd5b611fe885828601611df4565b9150509250929050565b6000806040838503121561200557600080fd5b600061201385828601611d76565b925050602061202485828601611e1e565b9150509250929050565b60006020828403121561204057600080fd5b600061204e84828501611da0565b91505092915050565b60006020828403121561206957600080fd5b600061207784828501611db5565b91505092915050565b60006020828403121561209257600080fd5b60006120a084828501611e1e565b91505092915050565b6120b281612897565b82525050565b6120c1816128a9565b82525050565b60006120d282612799565b6120dc81856127af565b93506120ec81856020860161291a565b6120f581612ae6565b840191505092915050565b600061210b826127a4565b61211581856127c0565b935061212581856020860161291a565b61212e81612ae6565b840191505092915050565b6000612144826127a4565b61214e81856127d1565b935061215e81856020860161291a565b80840191505092915050565b60006121776032836127c0565b915061218282612af7565b604082019050919050565b600061219a6026836127c0565b91506121a582612b46565b604082019050919050565b60006121bd6025836127c0565b91506121c882612b95565b604082019050919050565b60006121e0601c836127c0565b91506121eb82612be4565b602082019050919050565b60006122036024836127c0565b915061220e82612c0d565b604082019050919050565b60006122266019836127c0565b915061223182612c5c565b602082019050919050565b6000612249602c836127c0565b915061225482612c85565b604082019050919050565b600061226c6038836127c0565b915061227782612cd4565b604082019050919050565b600061228f602a836127c0565b915061229a82612d23565b604082019050919050565b60006122b26029836127c0565b91506122bd82612d72565b604082019050919050565b60006122d5602e836127c0565b91506122e082612dc1565b604082019050919050565b60006122f86020836127c0565b915061230382612e10565b602082019050919050565b600061231b6031836127c0565b915061232682612e39565b604082019050919050565b600061233e602c836127c0565b915061234982612e88565b604082019050919050565b60006123616020836127c0565b915061236c82612ed7565b602082019050919050565b6000612384602f836127c0565b915061238f82612f00565b604082019050919050565b60006123a76021836127c0565b91506123b282612f4f565b604082019050919050565b60006123ca6031836127c0565b91506123d582612f9e565b604082019050919050565b6123e981612901565b82525050565b60006123fb8285612139565b91506124078284612139565b91508190509392505050565b600060208201905061242860008301846120a9565b92915050565b600060808201905061244360008301876120a9565b61245060208301866120a9565b61245d60408301856123e0565b818103606083015261246f81846120c7565b905095945050505050565b600060208201905061248f60008301846120b8565b92915050565b600060208201905081810360008301526124af8184612100565b905092915050565b600060208201905081810360008301526124d08161216a565b9050919050565b600060208201905081810360008301526124f08161218d565b9050919050565b60006020820190508181036000830152612510816121b0565b9050919050565b60006020820190508181036000830152612530816121d3565b9050919050565b60006020820190508181036000830152612550816121f6565b9050919050565b6000602082019050818103600083015261257081612219565b9050919050565b600060208201905081810360008301526125908161223c565b9050919050565b600060208201905081810360008301526125b08161225f565b9050919050565b600060208201905081810360008301526125d081612282565b9050919050565b600060208201905081810360008301526125f0816122a5565b9050919050565b60006020820190508181036000830152612610816122c8565b9050919050565b60006020820190508181036000830152612630816122eb565b9050919050565b600060208201905081810360008301526126508161230e565b9050919050565b6000602082019050818103600083015261267081612331565b9050919050565b6000602082019050818103600083015261269081612354565b9050919050565b600060208201905081810360008301526126b081612377565b9050919050565b600060208201905081810360008301526126d08161239a565b9050919050565b600060208201905081810360008301526126f0816123bd565b9050919050565b600060208201905061270c60008301846123e0565b92915050565b600061271c61272d565b9050612728828261297f565b919050565b6000604051905090565b600067ffffffffffffffff82111561275257612751612ab7565b5b61275b82612ae6565b9050602081019050919050565b600067ffffffffffffffff82111561278357612782612ab7565b5b61278c82612ae6565b9050602081019050919050565b600081519050919050565b600081519050919050565b600082825260208201905092915050565b600082825260208201905092915050565b600081905092915050565b60006127e782612901565b91506127f283612901565b9250827fffffffffffffffffffffffffffffffffffffffffffffffffffffffffffffffff0382111561282757612826612a2a565b5b828201905092915050565b600061283d82612901565b915061284883612901565b92508261285857612857612a59565b5b828204905092915050565b600061286e82612901565b915061287983612901565b92508282101561288c5761288b612a2a565b5b828203905092915050565b60006128a2826128e1565b9050919050565b60008115159050919050565b60007fffffffff0000000000000000000000000000000000000000000000000000000082169050919050565b600073ffffffffffffffffffffffffffffffffffffffff82169050919050565b6000819050919050565b82818337600083830152505050565b60005b8381101561293857808201518184015260208101905061291d565b83811115612947576000848401525b50505050565b6000600282049050600182168061296557607f821691505b6020821081141561297957612978612a88565b5b50919050565b61298882612ae6565b810181811067ffffffffffffffff821117156129a7576129a6612ab7565b5b80604052505050565b60006129bb82612901565b91507fffffffffffffffffffffffffffffffffffffffffffffffffffffffffffffffff8214156129ee576129ed612a2a565b5b600182019050919050565b6000612a0482612901565b9150612a0f83612901565b925082612a1f57612a1e612a59565b5b828206905092915050565b7f4e487b7100000000000000000000000000000000000000000000000000000000600052601160045260246000fd5b7f4e487b7100000000000000000000000000000000000000000000000000000000600052601260045260246000fd5b7f4e487b7100000000000000000000000000000000000000000000000000000000600052602260045260246000fd5b7f4e487b7100000000000000000000000000000000000000000000000000000000600052604160045260246000fd5b6000601f19601f8301169050919050565b7f4552433732313a207472616e7366657220746f206e6f6e20455243373231526560008201527f63656976657220696d706c656d656e7465720000000000000000000000000000602082015250565b7f4f776e61626c653a206e6577206f776e657220697320746865207a65726f206160008201527f6464726573730000000000000000000000000000000000000000000000000000602082015250565b7f4552433732313a207472616e736665722066726f6d20696e636f72726563742060008201527f6f776e6572000000000000000000000000000000000000000000000000000000602082015250565b7f4552433732313a20746f6b656e20616c7265616479206d696e74656400000000600082015250565b7f4552433732313a207472616e7366657220746f20746865207a65726f2061646460008201527f7265737300000000000000000000000000000000000000000000000000000000602082015250565b7f4552433732313a20617070726f766520746f2063616c6c657200000000000000600082015250565b7f4552433732313a206f70657261746f7220717565727920666f72206e6f6e657860008201527f697374656e7420746f6b656e0000000000000000000000000000000000000000602082015250565b7f4552433732313a20617070726f76652063616c6c6572206973206e6f74206f7760008201527f6e6572206e6f7220617070726f76656420666f7220616c6c0000000000000000602082015250565b7f4552433732313a2062616c616e636520717565727920666f7220746865207a6560008201527f726f206164647265737300000000000000000000000000000000000000000000602082015250565b7f4552433732313a206f776e657220717565727920666f72206e6f6e657869737460008201527f656e7420746f6b656e0000000000000000000000000000000000000000000000602082015250565b7f45524337323155524953746f726167653a2055524920736574206f66206e6f6e60008201527f6578697374656e7420746f6b656e000000000000000000000000000000000000602082015250565b7f4552433732313a206d696e7420746f20746865207a65726f2061646472657373600082015250565b7f45524337323155524953746f726167653a2055524920717565727920666f722060008201527f6e6f6e6578697374656e7420746f6b656e000000000000000000000000000000602082015250565b7f4552433732313a20617070726f76656420717565727920666f72206e6f6e657860008201527f697374656e7420746f6b656e0000000000000000000000000000000000000000602082015250565b7f4f776e61626c653a2063616c6c6572206973206e6f7420746865206f776e6572600082015250565b7f4552433732314d657461646174613a2055524920717565727920666f72206e6f60008201527f6e6578697374656e7420746f6b656e0000000000000000000000000000000000602082015250565b7f4552433732313a20617070726f76616c20746f2063757272656e74206f776e6560008201527f7200000000000000000000000000000000000000000000000000000000000000602082015250565b7f4552433732313a207472616e736665722063616c6c6572206973206e6f74206f60008201527f776e6572206e6f7220617070726f766564000000000000000000000000000000602082015250565b612ff681612897565b811461300157600080fd5b50565b61300d816128a9565b811461301857600080fd5b50565b613024816128b5565b811461302f57600080fd5b50565b61303b81612901565b811461304657600080fd5b5056fea2646970667358221220b5774a42efc8ff79bc2a2bbf52a9bda587b5809a48b9f3744a9141a555417d0664736f6c63430008040033",
  "linkReferences": {},
  "deployedLinkReferences": {}
}